{
  "_format": "hh-sol-artifact-1",
  "contractName": "VoidBoosts",
  "sourceName": "contracts/VoidBoosts.sol",
  "abi": [
    {
      "inputs": [
        {
          "internalType": "address",
          "name": "_voidToken",
          "type": "address"
        },
        {
          "internalType": "address",
          "name": "_treasury",
          "type": "address"
        },
        {
          "internalType": "address",
          "name": "_stakingPool",
          "type": "address"
        }
      ],
      "stateMutability": "nonpayable",
      "type": "constructor"
    },
    {
      "inputs": [
        {
          "internalType": "address",
          "name": "owner",
          "type": "address"
        }
      ],
      "name": "OwnableInvalidOwner",
      "type": "error"
    },
    {
      "inputs": [
        {
          "internalType": "address",
          "name": "account",
          "type": "address"
        }
      ],
      "name": "OwnableUnauthorizedAccount",
      "type": "error"
    },
    {
      "inputs": [],
      "name": "ReentrancyGuardReentrantCall",
      "type": "error"
    },
    {
      "inputs": [
        {
          "internalType": "address",
          "name": "token",
          "type": "address"
        }
      ],
      "name": "SafeERC20FailedOperation",
      "type": "error"
    },
    {
      "anonymous": false,
      "inputs": [
        {
          "indexed": true,
          "internalType": "address",
          "name": "player",
          "type": "address"
        },
        {
          "indexed": false,
          "internalType": "enum VoidBoosts.BoostType",
          "name": "boostType",
          "type": "uint8"
        },
        {
          "indexed": false,
          "internalType": "uint256",
          "name": "expiresAt",
          "type": "uint256"
        }
      ],
      "name": "BoostActivated",
      "type": "event"
    },
    {
      "anonymous": false,
      "inputs": [
        {
          "indexed": true,
          "internalType": "address",
          "name": "player",
          "type": "address"
        },
        {
          "indexed": false,
          "internalType": "uint256",
          "name": "totalSlots",
          "type": "uint256"
        }
      ],
      "name": "ColonyPermitPurchased",
      "type": "event"
    },
    {
      "anonymous": false,
      "inputs": [
        {
          "indexed": true,
          "internalType": "address",
          "name": "player",
          "type": "address"
        },
        {
          "indexed": false,
          "internalType": "uint256",
          "name": "fleetId",
          "type": "uint256"
        }
      ],
      "name": "EmergencyRecallUsed",
      "type": "event"
    },
    {
      "anonymous": false,
      "inputs": [
        {
          "indexed": true,
          "internalType": "address",
          "name": "player",
          "type": "address"
        },
        {
          "indexed": false,
          "internalType": "uint256",
          "name": "colonyId",
          "type": "uint256"
        },
        {
          "indexed": false,
          "internalType": "uint256",
          "name": "facilityId",
          "type": "uint256"
        }
      ],
      "name": "InstantBuildUsed",
      "type": "event"
    },
    {
      "anonymous": false,
      "inputs": [
        {
          "indexed": true,
          "internalType": "address",
          "name": "previousOwner",
          "type": "address"
        },
        {
          "indexed": true,
          "internalType": "address",
          "name": "newOwner",
          "type": "address"
        }
      ],
      "name": "OwnershipTransferred",
      "type": "event"
    },
    {
      "anonymous": false,
      "inputs": [
        {
          "indexed": false,
          "internalType": "uint256",
          "name": "burned",
          "type": "uint256"
        },
        {
          "indexed": false,
          "internalType": "uint256",
          "name": "toTreasury",
          "type": "uint256"
        },
        {
          "indexed": false,
          "internalType": "uint256",
          "name": "toStaking",
          "type": "uint256"
        }
      ],
      "name": "TokensDistributed",
      "type": "event"
    },
    {
      "anonymous": false,
      "inputs": [
        {
          "indexed": true,
          "internalType": "address",
          "name": "player",
          "type": "address"
        },
        {
          "indexed": false,
          "internalType": "uint256",
          "name": "expiresAt",
          "type": "uint256"
        }
      ],
      "name": "VoidShieldActivated",
      "type": "event"
    },
    {
      "inputs": [],
      "name": "ACCELERATOR_25_COST",
      "outputs": [
        {
          "internalType": "uint256",
          "name": "",
          "type": "uint256"
        }
      ],
      "stateMutability": "view",
      "type": "function"
    },
    {
      "inputs": [],
      "name": "ACCELERATOR_50_COST",
      "outputs": [
        {
          "internalType": "uint256",
          "name": "",
          "type": "uint256"
        }
      ],
      "stateMutability": "view",
      "type": "function"
    },
    {
      "inputs": [],
      "name": "ACCELERATOR_DURATION",
      "outputs": [
        {
          "internalType": "uint256",
          "name": "",
          "type": "uint256"
        }
      ],
      "stateMutability": "view",
      "type": "function"
    },
    {
      "inputs": [],
      "name": "BURN_PERCENTAGE",
      "outputs": [
        {
          "internalType": "uint256",
          "name": "",
          "type": "uint256"
        }
      ],
      "stateMutability": "view",
      "type": "function"
    },
    {
      "inputs": [],
      "name": "COLONY_PERMIT_COST",
      "outputs": [
        {
          "internalType": "uint256",
          "name": "",
          "type": "uint256"
        }
      ],
      "stateMutability": "view",
      "type": "function"
    },
    {
      "inputs": [],
      "name": "EMERGENCY_RECALL_COST",
      "outputs": [
        {
          "internalType": "uint256",
          "name": "",
          "type": "uint256"
        }
      ],
      "stateMutability": "view",
      "type": "function"
    },
    {
      "inputs": [],
      "name": "INSTANT_BUILD_COST",
      "outputs": [
        {
          "internalType": "uint256",
          "name": "",
          "type": "uint256"
        }
      ],
      "stateMutability": "view",
      "type": "function"
    },
    {
      "inputs": [],
      "name": "STAKING_PERCENTAGE",
      "outputs": [
        {
          "internalType": "uint256",
          "name": "",
          "type": "uint256"
        }
      ],
      "stateMutability": "view",
      "type": "function"
    },
    {
      "inputs": [],
      "name": "STEALTH_MODE_COST",
      "outputs": [
        {
          "internalType": "uint256",
          "name": "",
          "type": "uint256"
        }
      ],
      "stateMutability": "view",
      "type": "function"
    },
    {
      "inputs": [],
      "name": "STEALTH_MODE_DURATION",
      "outputs": [
        {
          "internalType": "uint256",
          "name": "",
          "type": "uint256"
        }
      ],
      "stateMutability": "view",
      "type": "function"
    },
    {
      "inputs": [],
      "name": "TREASURY_PERCENTAGE",
      "outputs": [
        {
          "internalType": "uint256",
          "name": "",
          "type": "uint256"
        }
      ],
      "stateMutability": "view",
      "type": "function"
    },
    {
      "inputs": [],
      "name": "VOID_SHIELD_COST",
      "outputs": [
        {
          "internalType": "uint256",
          "name": "",
          "type": "uint256"
        }
      ],
      "stateMutability": "view",
      "type": "function"
    },
    {
      "inputs": [],
      "name": "VOID_SHIELD_DURATION",
      "outputs": [
        {
          "internalType": "uint256",
          "name": "",
          "type": "uint256"
        }
      ],
      "stateMutability": "view",
      "type": "function"
    },
    {
      "inputs": [],
      "name": "YIELD_AMPLIFIER_COST",
      "outputs": [
        {
          "internalType": "uint256",
          "name": "",
          "type": "uint256"
        }
      ],
      "stateMutability": "view",
      "type": "function"
    },
    {
      "inputs": [],
      "name": "YIELD_AMPLIFIER_DURATION",
      "outputs": [
        {
          "internalType": "uint256",
          "name": "",
          "type": "uint256"
        }
      ],
      "stateMutability": "view",
      "type": "function"
    },
    {
      "inputs": [
        {
          "internalType": "uint256",
          "name": "level",
          "type": "uint256"
        }
      ],
      "name": "activateAccelerator",
      "outputs": [],
      "stateMutability": "nonpayable",
      "type": "function"
    },
    {
      "inputs": [],
      "name": "activateStealthMode",
      "outputs": [],
      "stateMutability": "nonpayable",
      "type": "function"
    },
    {
      "inputs": [],
      "name": "activateVoidShield",
      "outputs": [],
      "stateMutability": "nonpayable",
      "type": "function"
    },
    {
      "inputs": [],
      "name": "activateYieldAmplifier",
      "outputs": [],
      "stateMutability": "nonpayable",
      "type": "function"
    },
    {
      "inputs": [],
      "name": "gameContract",
      "outputs": [
        {
          "internalType": "address",
          "name": "",
          "type": "address"
        }
      ],
      "stateMutability": "view",
      "type": "function"
    },
    {
      "inputs": [
        {
          "internalType": "address",
          "name": "player",
          "type": "address"
        }
      ],
      "name": "getAcceleratorMultiplier",
      "outputs": [
        {
          "internalType": "uint256",
          "name": "",
          "type": "uint256"
        }
      ],
      "stateMutability": "view",
      "type": "function"
    },
    {
      "inputs": [
        {
          "internalType": "address",
          "name": "player",
          "type": "address"
        }
      ],
      "name": "getExtraColonySlots",
      "outputs": [
        {
          "internalType": "uint256",
          "name": "",
          "type": "uint256"
        }
      ],
      "stateMutability": "view",
      "type": "function"
    },
    {
      "inputs": [
        {
          "internalType": "address",
          "name": "player",
          "type": "address"
        }
      ],
      "name": "getYieldMultiplier",
      "outputs": [
        {
          "internalType": "uint256",
          "name": "",
          "type": "uint256"
        }
      ],
      "stateMutability": "view",
      "type": "function"
    },
    {
      "inputs": [
        {
          "internalType": "address",
          "name": "",
          "type": "address"
        }
      ],
      "name": "hasVoidShield",
      "outputs": [
        {
          "internalType": "bool",
          "name": "",
          "type": "bool"
        }
      ],
      "stateMutability": "view",
      "type": "function"
    },
    {
      "inputs": [
        {
          "internalType": "address",
          "name": "player",
          "type": "address"
        }
      ],
      "name": "isShieldActive",
      "outputs": [
        {
          "internalType": "bool",
          "name": "",
          "type": "bool"
        }
      ],
      "stateMutability": "view",
      "type": "function"
    },
    {
      "inputs": [
        {
          "internalType": "address",
          "name": "player",
          "type": "address"
        }
      ],
      "name": "isStealthActive",
      "outputs": [
        {
          "internalType": "bool",
          "name": "",
          "type": "bool"
        }
      ],
      "stateMutability": "view",
      "type": "function"
    },
    {
      "inputs": [],
      "name": "owner",
      "outputs": [
        {
          "internalType": "address",
          "name": "",
          "type": "address"
        }
      ],
      "stateMutability": "view",
      "type": "function"
    },
    {
      "inputs": [],
      "name": "purchaseColonyPermit",
      "outputs": [],
      "stateMutability": "nonpayable",
      "type": "function"
    },
    {
      "inputs": [],
      "name": "renounceOwnership",
      "outputs": [],
      "stateMutability": "nonpayable",
      "type": "function"
    },
    {
      "inputs": [
        {
          "internalType": "address",
          "name": "_gameContract",
          "type": "address"
        }
      ],
      "name": "setGameContract",
      "outputs": [],
      "stateMutability": "nonpayable",
      "type": "function"
    },
    {
      "inputs": [
        {
          "internalType": "address",
          "name": "_stakingPool",
          "type": "address"
        }
      ],
      "name": "setStakingPool",
      "outputs": [],
      "stateMutability": "nonpayable",
      "type": "function"
    },
    {
      "inputs": [
        {
          "internalType": "address",
          "name": "_treasury",
          "type": "address"
        }
      ],
      "name": "setTreasury",
      "outputs": [],
      "stateMutability": "nonpayable",
      "type": "function"
    },
    {
      "inputs": [],
      "name": "stakingPool",
      "outputs": [
        {
          "internalType": "address",
          "name": "",
          "type": "address"
        }
      ],
      "stateMutability": "view",
      "type": "function"
    },
    {
      "inputs": [],
      "name": "totalBurned",
      "outputs": [
        {
          "internalType": "uint256",
          "name": "",
          "type": "uint256"
        }
      ],
      "stateMutability": "view",
      "type": "function"
    },
    {
      "inputs": [],
      "name": "totalToStaking",
      "outputs": [
        {
          "internalType": "uint256",
          "name": "",
          "type": "uint256"
        }
      ],
      "stateMutability": "view",
      "type": "function"
    },
    {
      "inputs": [],
      "name": "totalToTreasury",
      "outputs": [
        {
          "internalType": "uint256",
          "name": "",
          "type": "uint256"
        }
      ],
      "stateMutability": "view",
      "type": "function"
    },
    {
      "inputs": [
        {
          "internalType": "address",
          "name": "newOwner",
          "type": "address"
        }
      ],
      "name": "transferOwnership",
      "outputs": [],
      "stateMutability": "nonpayable",
      "type": "function"
    },
    {
      "inputs": [],
      "name": "treasury",
      "outputs": [
        {
          "internalType": "address",
          "name": "",
          "type": "address"
        }
      ],
      "stateMutability": "view",
      "type": "function"
    },
    {
      "inputs": [
        {
          "internalType": "uint256",
          "name": "fleetId",
          "type": "uint256"
        }
      ],
      "name": "useEmergencyRecall",
      "outputs": [],
      "stateMutability": "nonpayable",
      "type": "function"
    },
    {
      "inputs": [
        {
          "internalType": "uint256",
          "name": "colonyId",
          "type": "uint256"
        },
        {
          "internalType": "uint256",
          "name": "facilityId",
          "type": "uint256"
        }
      ],
      "name": "useInstantBuild",
      "outputs": [],
      "stateMutability": "nonpayable",
      "type": "function"
    },
    {
      "inputs": [
        {
          "internalType": "address",
          "name": "",
          "type": "address"
        }
      ],
      "name": "voidShieldExpiry",
      "outputs": [
        {
          "internalType": "uint256",
          "name": "",
          "type": "uint256"
        }
      ],
      "stateMutability": "view",
      "type": "function"
    },
    {
      "inputs": [],
      "name": "voidToken",
      "outputs": [
        {
          "internalType": "contract IERC20",
          "name": "",
          "type": "address"
        }
      ],
      "stateMutability": "view",
      "type": "function"
    }
  ],
  "bytecode": "0x60806040523480156200001157600080fd5b50604051620013463803806200134683398101604081905262000034916200011b565b33806200005b57604051631e4fbdf760e01b81526000600482015260240160405180910390fd5b6200006681620000ae565b5060018055600280546001600160a01b039485166001600160a01b03199182161790915560038054938516938216939093179092556004805491909316911617905562000165565b600080546001600160a01b038381166001600160a01b0319831681178455604051919092169283917f8be0079c531659141344cd1fd0a4f28419497f9722a3daafe3b4186f6b6457e09190a35050565b80516001600160a01b03811681146200011657600080fd5b919050565b6000806000606084860312156200013157600080fd5b6200013c84620000fe565b92506200014c60208501620000fe565b91506200015c60408501620000fe565b90509250925092565b6111d180620001756000396000f3fe608060405234801561001057600080fd5b506004361061025e5760003560e01c8063715018a611610146578063c1b57edb116100c3578063eacf975111610087578063eacf9751146104ff578063ec9a1d51146102dd578063f0f4426014610507578063f2fde38b1461051a578063f3f8e2aa1461052d578063f80b3dd01461054057600080fd5b8063c1b57edb146104c7578063c3df9ba3146104d0578063d37b2ff9146102dd578063d3f33009146104e3578063d89135cd146104f657600080fd5b8063823d69371161010a578063823d6937146104865780638da5cb5b146104965780639649b910146104a7578063a9716f33146104af578063ba01be59146104b757600080fd5b8063715018a61461043b57806372b9b71d1461044357806374ea739e146104535780637920bb39146104635780637f600bf81461047357600080fd5b806342d4fa5c116101df578063596dfe74116101a3578063596dfe74146103ed5780635aaa7dff146103f557806360a441611461040557806361d027b314610415578063634f949314610428578063700dab7f1461043157600080fd5b806342d4fa5c1461038f57806346355d6c146103af5780634cb8efd4146103c2578063533f90a1146103d557806357d1cb6e146103dd57600080fd5b80631dd0f31e116102265780631dd0f31e1461032057806322ad3ea11461034c5780632aab971f146103565780633028f63a14610369578063405ebd4d1461037c57600080fd5b80630791f8b3146102635780630c56ae3b146102b2578063167280fa146102dd578063173b31d8146102f557806318265e08146102fd575b600080fd5b61029d610271366004611060565b6001600160a01b0316600090815260066020908152604080832060048452909152902060020154421090565b60405190151581526020015b60405180910390f35b6004546102c5906001600160a01b031681565b6040516001600160a01b0390911681526020016102a9565b6102e76201518081565b6040519081526020016102a9565b6102e7601e81565b61029d61030b366004611060565b60076020526000908152604090205460ff1681565b6102e761032e366004611060565b6001600160a01b031660009081526006602052604090206001015490565b610354610553565b005b610354610364366004611090565b6105e3565b610354610377366004611060565b610662565b61035461038a366004611060565b61068c565b6102e761039d366004611060565b60086020526000908152604090205481565b6102e76103bd366004611060565b6106b6565b6103546103d0366004611090565b61071e565b6103546108e2565b6102e7686c6b935b8bbd40000081565b6103546109c9565b6102e7681b1ae4d6e2ef50000081565b6102e76802b5e3af16b188000081565b6003546102c5906001600160a01b031681565b6102e7600b5481565b6102e76202a30081565b610354610aae565b6102e7680ad78ebc5ac620000081565b6102e7680821ab0d441498000081565b6102e7680d8d726b7177a8000081565b6102e7610481366004611060565b610ac0565b6102e7683635c9adc5dea0000081565b6000546001600160a01b03166102c5565b6102e7603281565b6102e7601481565b6102e768056bc75e2d6310000081565b6102e7600a5481565b61029d6104de366004611060565b610b04565b6005546102c5906001600160a01b031681565b6102e760095481565b610354610b49565b610354610515366004611060565b610c2f565b610354610528366004611060565b610c59565b61035461053b3660046110a9565b610c94565b6002546102c5906001600160a01b031681565b61055b610d1a565b61056e33686c6b935b8bbd400000610d44565b33600090815260066020526040812060010180549161058c836110f7565b9091555050336000818152600660209081526040918290206001015491519182527fa97775681db71bd14c6bbad8726c5ed1475c8b6e9e1afabe27c001d217dddd7c910160405180910390a26105e160018055565b565b6105eb610d1a565b6105fe336802b5e3af16b1880000610d44565b33600090815260066020526040812060030180549161061c836110f7565b909155505060405181815233907f913a79b17eea7f58a029c56d7f76a12f0c4d875d08e132bdf36dfaf2074df6349060200160405180910390a261065f60018055565b50565b61066a610ecf565b600480546001600160a01b0319166001600160a01b0392909216919091179055565b610694610ecf565b600580546001600160a01b0319166001600160a01b0392909216919091179055565b6001600160a01b0381166000908152600660209081526040808320600184529091528082206002808452918320918201549091904210156106fc57600301549392505050565b428260020154111561071357506003015492915050565b506127109392505050565b610726610d1a565b80601914806107355750806032145b6107765760405162461bcd60e51b815260206004820152600d60248201526c125b9d985b1a59081b195d995b609a1b60448201526064015b60405180910390fd5b60008160191461078757600261078a565b60015b90506000826019146107a557680d8d726b7177a800006107b0565b68056bc75e2d631000005b90506107bc3382610d44565b60006107cb6201518042611110565b905060405180608001604052808460048111156107ea576107ea6110cb565b81526020014281526020018281526020018560191461080b57613a9861080f565b6130d45b61ffff16905233600090815260066020526040812090856004811115610837576108376110cb565b6004811115610848576108486110cb565b8152602081019190915260400160002081518154829060ff19166001836004811115610876576108766110cb565b02179055506020820151600182015560408083015160028301556060909201516003909101555133907fc46f4259f073f7993c078b946b1b8e16f428b1b02940277d10d1e6fc4ad46ebe906108ce9086908590611123565b60405180910390a250505061065f60018055565b6108ea610d1a565b6108f333610b04565b156109385760405162461bcd60e51b8152602060048201526015602482015274536869656c6420616c72656164792061637469766560581b604482015260640161076d565b61094b33683635c9adc5dea00000610d44565b600061095a6202a30042611110565b336000818152600760209081526040808320805460ff1916600117905560089091529081902083905551919250907faf1157be12f167926726e9e6179192c28a7efe7892b3d367c093d5dbcb47fe01906109b79084815260200190565b60405180910390a2506105e160018055565b6109d1610d1a565b6109e433680821ab0d4414980000610d44565b60006109f36201518042611110565b6040805160808101825260048082524260208084019190915282840185905260006060840181905233815260068252848120838252909152929092208151815494955091939092839160ff1916906001908490811115610a5557610a556110cb565b02179055506020820151600182015560408083015160028301556060909201516003909101555133907fc46f4259f073f7993c078b946b1b8e16f428b1b02940277d10d1e6fc4ad46ebe906109b7906004908590611123565b610ab6610ecf565b6105e16000610efc565b6001600160a01b03811660009081526006602090815260408083206003845290915281206002810154421015610afa576003015492915050565b5061271092915050565b6001600160a01b03811660009081526007602052604081205460ff168015610b4357506001600160a01b03821660009081526008602052604090205442105b92915050565b610b51610d1a565b610b6433680ad78ebc5ac6200000610d44565b6000610b736201518042611110565b60408051608081018252600380825242602080840191909152828401859052613a9860608401523360009081526006825284812092815291905291909120815181549394509192909190829060ff19166001836004811115610bd757610bd76110cb565b0217905550602082015160018201556040808301516002830155606090920151600391820155905133917fc46f4259f073f7993c078b946b1b8e16f428b1b02940277d10d1e6fc4ad46ebe916109b791908590611123565b610c37610ecf565b600380546001600160a01b0319166001600160a01b0392909216919091179055565b610c61610ecf565b6001600160a01b038116610c8b57604051631e4fbdf760e01b81526000600482015260240161076d565b61065f81610efc565b610c9c610d1a565b610caf33681b1ae4d6e2ef500000610d44565b336000908152600660205260408120600201805491610ccd836110f7565b9091555050604080518381526020810183905233917f2b6cf4c9f1fb25eec2be894e99d6aad17c42bf7e515d389b0426766030b9dbeb910160405180910390a2610d1660018055565b5050565b600260015403610d3d57604051633ee5aeb560e01b815260040160405180910390fd5b6002600155565b600254610d5c906001600160a01b0316833084610f4c565b60006064610d6b60328461114f565b610d759190611166565b905060006064610d86601e8561114f565b610d909190611166565b9050600081610d9f8486611188565b610da99190611188565b600254604051630852cd8d60e31b8152600481018690529192506001600160a01b0316906342966c6890602401600060405180830381600087803b158015610df057600080fd5b505af1158015610e04573d6000803e3d6000fd5b505050508260096000828254610e1a9190611110565b9091555050600354600254610e3c916001600160a01b03918216911684610fb9565b81600a6000828254610e4e9190611110565b9091555050600454600254610e70916001600160a01b03918216911683610fb9565b80600b6000828254610e829190611110565b909155505060408051848152602081018490529081018290527f8739ea584738c9982d7ea914ddf018402c622087a3ac9c4eddfdaafdefab13479060600160405180910390a15050505050565b6000546001600160a01b031633146105e15760405163118cdaa760e01b815233600482015260240161076d565b600080546001600160a01b038381166001600160a01b0319831681178455604051919092169283917f8be0079c531659141344cd1fd0a4f28419497f9722a3daafe3b4186f6b6457e09190a35050565b6040516001600160a01b038481166024830152838116604483015260648201839052610fb39186918216906323b872dd906084015b604051602081830303815290604052915060e01b6020820180516001600160e01b038381831617835250505050610fef565b50505050565b6040516001600160a01b03838116602483015260448201839052610fea91859182169063a9059cbb90606401610f81565b505050565b600080602060008451602086016000885af180611012576040513d6000823e3d81fd5b50506000513d9150811561102a578060011415611037565b6001600160a01b0384163b155b15610fb357604051635274afe760e01b81526001600160a01b038516600482015260240161076d565b60006020828403121561107257600080fd5b81356001600160a01b038116811461108957600080fd5b9392505050565b6000602082840312156110a257600080fd5b5035919050565b600080604083850312156110bc57600080fd5b50508035926020909101359150565b634e487b7160e01b600052602160045260246000fd5b634e487b7160e01b600052601160045260246000fd5b600060018201611109576111096110e1565b5060010190565b80820180821115610b4357610b436110e1565b604081016005841061114557634e487b7160e01b600052602160045260246000fd5b9281526020015290565b8082028115828204841417610b4357610b436110e1565b60008261118357634e487b7160e01b600052601260045260246000fd5b500490565b81810381811115610b4357610b436110e156fea2646970667358221220a1e57879ea73e374c39944af48dfb6abbd60acd7acdc15447e0d7c8974e8323364736f6c63430008140033",
  "linkReferences": {},
  "deployedLinkReferences": {}
}